:0400000037110000b4
:04000100ef000022ea
:040002007300100077
:040003006f0000008a
:04000400130101ffe4
:0400050023260100ad
:040006009307f0006c
:0400070063e2a70aff
:040008009307402cee
:0400090013152500a6
:04000a003305f500c5
:04000b008327050042
:04000c006780070002
:04000d009307000c49
:04000e002326f100b4
:04000f000325c10004
:0400100013010101d6
:040011006780000004
:040012009307900fb1
:040013006ff0dffead
:040014009307400a04
:040015006ff05ffe2b
:040016009307000b41
:040017006ff0dffdaa
:0400180093079009b1
:040019006ff05ffd28
:04001a00930720091f
:04001b006ff0dffca7
:04001c00930720081e
:04001d006ff05ffc25
:04001e009307800fb5
:04001f006ff0dffba4
:04002000930700083a
:040021006ff05ffb22
:040022009307000937
:040023006ff0dffaa1
:0400240093078008b6
:040025006ff05ffa1f
:040026009307300804
:040027006ff0dff99e
:040028009307600cce
:040029006ff05ff91c
:04002a009307100a1e
:04002b006ff0dff89b
:04002c0093076008ce
:04002d006ff05ff819
:04002e009307e0084c
:04002f006ff0dff798
:040030009307f0073b
:040031006ff05ff716
:04003200130101ffb6
:04003300232601007f
:04003400130505fead
:040035009307f0033a
:0400360063e2a714c6
:0400370093074030bb
:040038001315250077
:040039003305f50096
:04003a008327050013
:04003b0067800700d3
:04003c009307900f87
:04003d002326f10085
:04003e000325c100d5
:04003f0013010101a7
:0400400067800000d5
:040041009307000b16
:040042006ff0dffe7e
:040043009307900986
:040044006ff05ffefc
:0400450093072008f5
:040046006ff0dffd7b
:040047009307800f8c
:040048006ff05ffdf9
:040049009307000811
:04004a006ff0dffc78
:04004b00930700090e
:04004c006ff05ffcf6
:04004d00930780088d
:04004e006ff0dffb75
:04004f0093073008db
:040050006ff05ffbf3
:040051009307600ca5
:040052006ff0dffa72
:040053009307100af5
:040054006ff05ffaf0
:0400550093076008a5
:040056006ff0dff96f
:040057009307e00823
:040058006ff05ff9ed
:040059009307200cdd
:04005a006ff0dff86c
:04005b009307b0084f
:04005c006ff05ff8ea
:04005d009307b00f46
:04005e006ff0dff769
:04005f009307100ee5
:040060006ff05ff7e7
:040061009307a00859
:040062006ff0dff666
:040063009307700c83
:040064006ff05ff6e4
:040065009307a00a53
:040066006ff0dff563
:040067009307b00a41
:040068006ff05ff5e1
:040069009307000ced
:04006a006ff0dff460
:04006b009307c0082f
:04006c006ff05ff4de
:04006d00930780096c
:04006e006ff0dff35d
:04006f009307e00c07
:040070006ff05ff3db
:0400710093072009c8
:040072006ff0dff25a
:040073009307700877
:040074006ff05ff2d8
:040075009307300cb1
:040076006ff0dff157
:040077009307500b90
:040078006ff05ff1d5
:040079009307500990
:04007a006ff0dff054
:04007b00930790084f
:04007c006ff05ff0d2
:04007d0093071009cc
:04007e006ff0dfef51
:04007f009307400a99
:040080006ff05fefcf
:040081009307f00fe2
:040082006ff0dfee4e
:040083009307f00be4
:040084006ff05feecc
:040085009307700f5e
:040086006ff0dfed4b
:040087009307f007e4
:040088006ff05fedc9
:04008900130101ff5f
:04008a00232201002c
:04008b00b757000063
:04008c002324010028
:04008d00938707e26c
:04008e002326f10034
:04008f00b7070100ae
:040090009387f7ff5c
:0400910037070080ad
:040092003796c0ffde
:04009300b7c5ffffef
:040094002324f7002a
:040095009306400688
:04009600b707008028
:040097001306e6e87e
:040098009385b50a8d
:040099001308100038
:04009a00232401001a
:04009b001307000047
:04009c000325c10077
:04009d006362a702f1
:04009e0003274100f3
:04009f00631c0702d5
:0400a00023a2b700e0
:0400a10023a607018a
:0400a2002322010113
:0400a3009386f6ff4b
:0400a400e39c06fcd7
:0400a5006f000000e8
:0400a60003258100ad
:0400a7006318e500f5
:0400a80003258100ab
:0400a9001305150026
:0400aa002324a1006a
:0400ab001307170020
:0400ac006ff01ffcd6
:0400ad0023a2c700c3
:0400ae0023a607007e
:0400af002322010007
:0400b0006ff0dffc12
:0400b1003400000017
:0400b2004800000002
:0400b30050000000f9
:0400b40058000000f0
:0400b50060000000e7
:0400b60068000000de
:0400b70070000000d5
:0400b80078000000cc
:0400b90080000000c3
:0400ba0088000000ba
:0400bb0090000000b1
:0400bc0098000000a8
:0400bd00a00000009f
:0400be00a800000096
:0400bf00b00000008d
:0400c000b800000084
:0400c1000402000035
:0400c2001c0200001c
:0400c3001c0200001b
:0400c4001c0200001a
:0400c5001c02000019
:0400c6001c02000018
:0400c7001c02000017
:0400c8001c02000016
:0400c9001c02000015
:0400ca001c02000014
:0400cb001c02000013
:0400cc001c02000012
:0400cd001c02000011
:0400ce000c02000020
:0400cf001c0200000f
:0400d0001c0200000e
:0400d100a401000086
:0400d200f00000003a
:0400d300fc0100002c
:0400d4000401000023
:0400d5000c0100001a
:0400d600c401000061
:0400d7001401000010
:0400d8001c01000007
:0400d90024010000fe
:0400da002c010000f5
:0400db001c02000003
:0400dc001c02000002
:0400dd001c02000001
:0400de001c02000000
:0400df001c020000ff
:0400e0001c020000fe
:0400e1001c020000fd
:0400e20034010000e5
:0400e3003c010000dc
:0400e40044010000d3
:0400e5004c010000ca
:0400e60054010000c1
:0400e7005c010000b8
:0400e80064010000af
:0400e9006c010000a6
:0400ea00740100009d
:0400eb007c01000094
:0400ec00840100008b
:0400ed008c01000082
:0400ee009401000079
:0400ef009c01000070
:0400f000a401000067
:0400f100ac0100005e
:0400f200b401000055
:0400f300bc0100004c
:0400f400c401000043
:0400f500cc0100003a
:0400f600d401000031
:0400f700dc01000028
:0400f800e40100001f
:0400f900ec01000016
:0400fa00f40100000d
:0400fb00fc01000004
:0400fc001c020000e2
:0400fd001c020000e1
:0400fe001c020000e0
:0400ff001c020000df
:0401000014020000e5
:0401010000000000fa
:0401020000000000f9
:0401030000000000f8
:0401040000000000f7
:0401050000000000f6
:0401060000000000f5
:0401070000000000f4
:0401080000000000f3
:0401090000000000f2
:04010a0000000000f1
:04010b0000000000f0
:04010c0000000000ef
:04010d0000000000ee
:04010e0000000000ed
:04010f0000000000ec
:0401100000000000eb
:0401110000000000ea
:0401120000000000e9
:0401130000000000e8
:0401140000000000e7
:0401150000000000e6
:0401160000000000e5
:0401170000000000e4
:0401180000000000e3
:0401190000000000e2
:04011a0000000000e1
:04011b0000000000e0
:04011c0000000000df
:04011d0000000000de
:04011e0000000000dd
:04011f0000000000dc
:0401200000000000db
:0401210000000000da
:0401220000000000d9
:0401230000000000d8
:0401240000000000d7
:0401250000000000d6
:0401260000000000d5
:0401270000000000d4
:0401280000000000d3
:0401290000000000d2
:04012a0000000000d1
:04012b0000000000d0
:04012c0000000000cf
:04012d0000000000ce
:04012e0000000000cd
:04012f0000000000cc
:0401300000000000cb
:0401310000000000ca
:0401320000000000c9
:0401330000000000c8
:0401340000000000c7
:0401350000000000c6
:0401360000000000c5
:0401370000000000c4
:0401380000000000c3
:0401390000000000c2
:04013a0000000000c1
:04013b0000000000c0
:04013c0000000000bf
:04013d0000000000be
:04013e0000000000bd
:04013f0000000000bc
:0401400000000000bb
:0401410000000000ba
:0401420000000000b9
:0401430000000000b8
:0401440000000000b7
:0401450000000000b6
:0401460000000000b5
:0401470000000000b4
:0401480000000000b3
:0401490000000000b2
:04014a0000000000b1
:04014b0000000000b0
:04014c0000000000af
:04014d0000000000ae
:04014e0000000000ad
:04014f0000000000ac
:0401500000000000ab
:0401510000000000aa
:0401520000000000a9
:0401530000000000a8
:0401540000000000a7
:0401550000000000a6
:0401560000000000a5
:0401570000000000a4
:0401580000000000a3
:0401590000000000a2
:04015a0000000000a1
:04015b0000000000a0
:04015c00000000009f
:04015d00000000009e
:04015e00000000009d
:04015f00000000009c
:04016000000000009b
:04016100000000009a
:040162000000000099
:040163000000000098
:040164000000000097
:040165000000000096
:040166000000000095
:040167000000000094
:040168000000000093
:040169000000000092
:04016a000000000091
:04016b000000000090
:04016c00000000008f
:04016d00000000008e
:04016e00000000008d
:04016f00000000008c
:04017000000000008b
:04017100000000008a
:040172000000000089
:040173000000000088
:040174000000000087
:040175000000000086
:040176000000000085
:040177000000000084
:040178000000000083
:040179000000000082
:04017a000000000081
:04017b000000000080
:04017c00000000007f
:04017d00000000007e
:04017e00000000007d
:04017f00000000007c
:04018000000000007b
:04018100000000007a
:040182000000000079
:040183000000000078
:040184000000000077
:040185000000000076
:040186000000000075
:040187000000000074
:040188000000000073
:040189000000000072
:04018a000000000071
:04018b000000000070
:04018c00000000006f
:04018d00000000006e
:04018e00000000006d
:04018f00000000006c
:04019000000000006b
:04019100000000006a
:040192000000000069
:040193000000000068
:040194000000000067
:040195000000000066
:040196000000000065
:040197000000000064
:040198000000000063
:040199000000000062
:04019a000000000061
:04019b000000000060
:04019c00000000005f
:04019d00000000005e
:04019e00000000005d
:04019f00000000005c
:0401a000000000005b
:0401a100000000005a
:0401a2000000000059
:0401a3000000000058
:0401a4000000000057
:0401a5000000000056
:0401a6000000000055
:0401a7000000000054
:0401a8000000000053
:0401a9000000000052
:0401aa000000000051
:0401ab000000000050
:0401ac00000000004f
:0401ad00000000004e
:0401ae00000000004d
:0401af00000000004c
:0401b000000000004b
:0401b100000000004a
:0401b2000000000049
:0401b3000000000048
:0401b4000000000047
:0401b5000000000046
:0401b6000000000045
:0401b7000000000044
:0401b8000000000043
:0401b9000000000042
:0401ba000000000041
:0401bb000000000040
:0401bc00000000003f
:0401bd00000000003e
:0401be00000000003d
:0401bf00000000003c
:0401c000000000003b
:0401c100000000003a
:0401c2000000000039
:0401c3000000000038
:0401c4000000000037
:0401c5000000000036
:0401c6000000000035
:0401c7000000000034
:0401c8000000000033
:0401c9000000000032
:0401ca000000000031
:0401cb000000000030
:0401cc00000000002f
:0401cd00000000002e
:0401ce00000000002d
:0401cf00000000002c
:0401d000000000002b
:0401d100000000002a
:0401d2000000000029
:0401d3000000000028
:0401d4000000000027
:0401d5000000000026
:0401d6000000000025
:0401d7000000000024
:0401d8000000000023
:0401d9000000000022
:0401da000000000021
:0401db000000000020
:0401dc00000000001f
:0401dd00000000001e
:0401de00000000001d
:0401df00000000001c
:0401e000000000001b
:0401e100000000001a
:0401e2000000000019
:0401e3000000000018
:0401e4000000000017
:0401e5000000000016
:0401e6000000000015
:0401e7000000000014
:0401e8000000000013
:0401e9000000000012
:0401ea000000000011
:0401eb000000000010
:0401ec00000000000f
:0401ed00000000000e
:0401ee00000000000d
:0401ef00000000000c
:0401f000000000000b
:0401f100000000000a
:0401f2000000000009
:0401f3000000000008
:0401f4000000000007
:0401f5000000000006
:0401f6000000000005
:0401f7000000000004
:0401f8000000000003
:0401f9000000000002
:0401fa000000000001
:0401fb000000000000
:0401fc0000000000ff
:0401fd0000000000fe
:0401fe0000000000fd
:0401ff0000000000fc
:0402000000000000fa
:0402010000000000f9
:0402020000000000f8
:0402030000000000f7
:0402040000000000f6
:0402050000000000f5
:0402060000000000f4
:0402070000000000f3
:0402080000000000f2
:0402090000000000f1
:04020a0000000000f0
:04020b0000000000ef
:04020c0000000000ee
:04020d0000000000ed
:04020e0000000000ec
:04020f0000000000eb
:0402100000000000ea
:0402110000000000e9
:0402120000000000e8
:0402130000000000e7
:0402140000000000e6
:0402150000000000e5
:0402160000000000e4
:0402170000000000e3
:0402180000000000e2
:0402190000000000e1
:04021a0000000000e0
:04021b0000000000df
:04021c0000000000de
:04021d0000000000dd
:04021e0000000000dc
:04021f0000000000db
:0402200000000000da
:0402210000000000d9
:0402220000000000d8
:0402230000000000d7
:0402240000000000d6
:0402250000000000d5
:0402260000000000d4
:0402270000000000d3
:0402280000000000d2
:0402290000000000d1
:04022a0000000000d0
:04022b0000000000cf
:04022c0000000000ce
:04022d0000000000cd
:04022e0000000000cc
:04022f0000000000cb
:0402300000000000ca
:0402310000000000c9
:0402320000000000c8
:0402330000000000c7
:0402340000000000c6
:0402350000000000c5
:0402360000000000c4
:0402370000000000c3
:0402380000000000c2
:0402390000000000c1
:04023a0000000000c0
:04023b0000000000bf
:04023c0000000000be
:04023d0000000000bd
:04023e0000000000bc
:04023f0000000000bb
:0402400000000000ba
:0402410000000000b9
:0402420000000000b8
:0402430000000000b7
:0402440000000000b6
:0402450000000000b5
:0402460000000000b4
:0402470000000000b3
:0402480000000000b2
:0402490000000000b1
:04024a0000000000b0
:04024b0000000000af
:04024c0000000000ae
:04024d0000000000ad
:04024e0000000000ac
:04024f0000000000ab
:0402500000000000aa
:0402510000000000a9
:0402520000000000a8
:0402530000000000a7
:0402540000000000a6
:0402550000000000a5
:0402560000000000a4
:0402570000000000a3
:0402580000000000a2
:0402590000000000a1
:04025a0000000000a0
:04025b00000000009f
:04025c00000000009e
:04025d00000000009d
:04025e00000000009c
:04025f00000000009b
:04026000000000009a
:040261000000000099
:040262000000000098
:040263000000000097
:040264000000000096
:040265000000000095
:040266000000000094
:040267000000000093
:040268000000000092
:040269000000000091
:04026a000000000090
:04026b00000000008f
:04026c00000000008e
:04026d00000000008d
:04026e00000000008c
:04026f00000000008b
:04027000000000008a
:040271000000000089
:040272000000000088
:040273000000000087
:040274000000000086
:040275000000000085
:040276000000000084
:040277000000000083
:040278000000000082
:040279000000000081
:04027a000000000080
:04027b00000000007f
:04027c00000000007e
:04027d00000000007d
:04027e00000000007c
:04027f00000000007b
:04028000000000007a
:040281000000000079
:040282000000000078
:040283000000000077
:040284000000000076
:040285000000000075
:040286000000000074
:040287000000000073
:040288000000000072
:040289000000000071
:04028a000000000070
:04028b00000000006f
:04028c00000000006e
:04028d00000000006d
:04028e00000000006c
:04028f00000000006b
:04029000000000006a
:040291000000000069
:040292000000000068
:040293000000000067
:040294000000000066
:040295000000000065
:040296000000000064
:040297000000000063
:040298000000000062
:040299000000000061
:04029a000000000060
:04029b00000000005f
:04029c00000000005e
:04029d00000000005d
:04029e00000000005c
:04029f00000000005b
:0402a000000000005a
:0402a1000000000059
:0402a2000000000058
:0402a3000000000057
:0402a4000000000056
:0402a5000000000055
:0402a6000000000054
:0402a7000000000053
:0402a8000000000052
:0402a9000000000051
:0402aa000000000050
:0402ab00000000004f
:0402ac00000000004e
:0402ad00000000004d
:0402ae00000000004c
:0402af00000000004b
:0402b000000000004a
:0402b1000000000049
:0402b2000000000048
:0402b3000000000047
:0402b4000000000046
:0402b5000000000045
:0402b6000000000044
:0402b7000000000043
:0402b8000000000042
:0402b9000000000041
:0402ba000000000040
:0402bb00000000003f
:0402bc00000000003e
:0402bd00000000003d
:0402be00000000003c
:0402bf00000000003b
:0402c000000000003a
:0402c1000000000039
:0402c2000000000038
:0402c3000000000037
:0402c4000000000036
:0402c5000000000035
:0402c6000000000034
:0402c7000000000033
:0402c8000000000032
:0402c9000000000031
:0402ca000000000030
:0402cb00000000002f
:0402cc00000000002e
:0402cd00000000002d
:0402ce00000000002c
:0402cf00000000002b
:0402d000000000002a
:0402d1000000000029
:0402d2000000000028
:0402d3000000000027
:0402d4000000000026
:0402d5000000000025
:0402d6000000000024
:0402d7000000000023
:0402d8000000000022
:0402d9000000000021
:0402da000000000020
:0402db00000000001f
:0402dc00000000001e
:0402dd00000000001d
:0402de00000000001c
:0402df00000000001b
:0402e000000000001a
:0402e1000000000019
:0402e2000000000018
:0402e3000000000017
:0402e4000000000016
:0402e5000000000015
:0402e6000000000014
:0402e7000000000013
:0402e8000000000012
:0402e9000000000011
:0402ea000000000010
:0402eb00000000000f
:0402ec00000000000e
:0402ed00000000000d
:0402ee00000000000c
:0402ef00000000000b
:0402f000000000000a
:0402f1000000000009
:0402f2000000000008
:0402f3000000000007
:0402f4000000000006
:0402f5000000000005
:0402f6000000000004
:0402f7000000000003
:0402f8000000000002
:0402f9000000000001
:0402fa000000000000
:0402fb0000000000ff
:0402fc0000000000fe
:0402fd0000000000fd
:0402fe0000000000fc
:0402ff0000000000fb
:0403000000000000f9
:0403010000000000f8
:0403020000000000f7
:0403030000000000f6
:0403040000000000f5
:0403050000000000f4
:0403060000000000f3
:0403070000000000f2
:0403080000000000f1
:0403090000000000f0
:04030a0000000000ef
:04030b0000000000ee
:04030c0000000000ed
:04030d0000000000ec
:04030e0000000000eb
:04030f0000000000ea
:0403100000000000e9
:0403110000000000e8
:0403120000000000e7
:0403130000000000e6
:0403140000000000e5
:0403150000000000e4
:0403160000000000e3
:0403170000000000e2
:0403180000000000e1
:0403190000000000e0
:04031a0000000000df
:04031b0000000000de
:04031c0000000000dd
:04031d0000000000dc
:04031e0000000000db
:04031f0000000000da
:0403200000000000d9
:0403210000000000d8
:0403220000000000d7
:0403230000000000d6
:0403240000000000d5
:0403250000000000d4
:0403260000000000d3
:0403270000000000d2
:0403280000000000d1
:0403290000000000d0
:04032a0000000000cf
:04032b0000000000ce
:04032c0000000000cd
:04032d0000000000cc
:04032e0000000000cb
:04032f0000000000ca
:0403300000000000c9
:0403310000000000c8
:0403320000000000c7
:0403330000000000c6
:0403340000000000c5
:0403350000000000c4
:0403360000000000c3
:0403370000000000c2
:0403380000000000c1
:0403390000000000c0
:04033a0000000000bf
:04033b0000000000be
:04033c0000000000bd
:04033d0000000000bc
:04033e0000000000bb
:04033f0000000000ba
:0403400000000000b9
:0403410000000000b8
:0403420000000000b7
:0403430000000000b6
:0403440000000000b5
:0403450000000000b4
:0403460000000000b3
:0403470000000000b2
:0403480000000000b1
:0403490000000000b0
:04034a0000000000af
:04034b0000000000ae
:04034c0000000000ad
:04034d0000000000ac
:04034e0000000000ab
:04034f0000000000aa
:0403500000000000a9
:0403510000000000a8
:0403520000000000a7
:0403530000000000a6
:0403540000000000a5
:0403550000000000a4
:0403560000000000a3
:0403570000000000a2
:0403580000000000a1
:0403590000000000a0
:04035a00000000009f
:04035b00000000009e
:04035c00000000009d
:04035d00000000009c
:04035e00000000009b
:04035f00000000009a
:040360000000000099
:040361000000000098
:040362000000000097
:040363000000000096
:040364000000000095
:040365000000000094
:040366000000000093
:040367000000000092
:040368000000000091
:040369000000000090
:04036a00000000008f
:04036b00000000008e
:04036c00000000008d
:04036d00000000008c
:04036e00000000008b
:04036f00000000008a
:040370000000000089
:040371000000000088
:040372000000000087
:040373000000000086
:040374000000000085
:040375000000000084
:040376000000000083
:040377000000000082
:040378000000000081
:040379000000000080
:04037a00000000007f
:04037b00000000007e
:04037c00000000007d
:04037d00000000007c
:04037e00000000007b
:04037f00000000007a
:040380000000000079
:040381000000000078
:040382000000000077
:040383000000000076
:040384000000000075
:040385000000000074
:040386000000000073
:040387000000000072
:040388000000000071
:040389000000000070
:04038a00000000006f
:04038b00000000006e
:04038c00000000006d
:04038d00000000006c
:04038e00000000006b
:04038f00000000006a
:040390000000000069
:040391000000000068
:040392000000000067
:040393000000000066
:040394000000000065
:040395000000000064
:040396000000000063
:040397000000000062
:040398000000000061
:040399000000000060
:04039a00000000005f
:04039b00000000005e
:04039c00000000005d
:04039d00000000005c
:04039e00000000005b
:04039f00000000005a
:0403a0000000000059
:0403a1000000000058
:0403a2000000000057
:0403a3000000000056
:0403a4000000000055
:0403a5000000000054
:0403a6000000000053
:0403a7000000000052
:0403a8000000000051
:0403a9000000000050
:0403aa00000000004f
:0403ab00000000004e
:0403ac00000000004d
:0403ad00000000004c
:0403ae00000000004b
:0403af00000000004a
:0403b0000000000049
:0403b1000000000048
:0403b2000000000047
:0403b3000000000046
:0403b4000000000045
:0403b5000000000044
:0403b6000000000043
:0403b7000000000042
:0403b8000000000041
:0403b9000000000040
:0403ba00000000003f
:0403bb00000000003e
:0403bc00000000003d
:0403bd00000000003c
:0403be00000000003b
:0403bf00000000003a
:0403c0000000000039
:0403c1000000000038
:0403c2000000000037
:0403c3000000000036
:0403c4000000000035
:0403c5000000000034
:0403c6000000000033
:0403c7000000000032
:0403c8000000000031
:0403c9000000000030
:0403ca00000000002f
:0403cb00000000002e
:0403cc00000000002d
:0403cd00000000002c
:0403ce00000000002b
:0403cf00000000002a
:0403d0000000000029
:0403d1000000000028
:0403d2000000000027
:0403d3000000000026
:0403d4000000000025
:0403d5000000000024
:0403d6000000000023
:0403d7000000000022
:0403d8000000000021
:0403d9000000000020
:0403da00000000001f
:0403db00000000001e
:0403dc00000000001d
:0403dd00000000001c
:0403de00000000001b
:0403df00000000001a
:0403e0000000000019
:0403e1000000000018
:0403e2000000000017
:0403e3000000000016
:0403e4000000000015
:0403e5000000000014
:0403e6000000000013
:0403e7000000000012
:0403e8000000000011
:0403e9000000000010
:0403ea00000000000f
:0403eb00000000000e
:0403ec00000000000d
:0403ed00000000000c
:0403ee00000000000b
:0403ef00000000000a
:0403f0000000000009
:0403f1000000000008
:0403f2000000000007
:0403f3000000000006
:0403f4000000000005
:0403f5000000000004
:0403f6000000000003
:0403f7000000000002
:0403f8000000000001
:0403f9000000000000
:0403fa0000000000ff
:0403fb0000000000fe
:0403fc0000000000fd
:0403fd0000000000fc
:0403fe0000000000fb
:0403ff0000000000fa
:00000001FF